{
  "contractName": "Flashloan",
  "abi": [
    {
      "inputs": [
        {
          "internalType": "address",
          "name": "kyberAddress",
          "type": "address"
        },
        {
          "internalType": "address",
          "name": "uniswapAddress",
          "type": "address"
        },
        {
          "internalType": "address",
          "name": "wethAddress",
          "type": "address"
        },
        {
          "internalType": "address",
          "name": "daiAddress",
          "type": "address"
        },
        {
          "internalType": "address",
          "name": "beneficiaryAddress",
          "type": "address"
        }
      ],
      "payable": false,
      "stateMutability": "nonpayable",
      "type": "constructor"
    },
    {
      "anonymous": false,
      "inputs": [
        {
          "indexed": false,
          "internalType": "enum Flashloan.Direction",
          "name": "direction",
          "type": "uint8"
        },
        {
          "indexed": false,
          "internalType": "uint256",
          "name": "profit",
          "type": "uint256"
        },
        {
          "indexed": false,
          "internalType": "uint256",
          "name": "date",
          "type": "uint256"
        }
      ],
      "name": "NewArbitrage",
      "type": "event"
    },
    {
      "payable": true,
      "stateMutability": "payable",
      "type": "fallback"
    },
    {
      "constant": false,
      "inputs": [
        {
          "internalType": "address",
          "name": "sender",
          "type": "address"
        },
        {
          "components": [
            {
              "internalType": "address",
              "name": "owner",
              "type": "address"
            },
            {
              "internalType": "uint256",
              "name": "number",
              "type": "uint256"
            }
          ],
          "internalType": "struct Account.Info",
          "name": "account",
          "type": "tuple"
        },
        {
          "internalType": "bytes",
          "name": "data",
          "type": "bytes"
        }
      ],
      "name": "callFunction",
      "outputs": [],
      "payable": false,
      "stateMutability": "nonpayable",
      "type": "function"
    },
    {
      "constant": false,
      "inputs": [
        {
          "internalType": "address",
          "name": "_solo",
          "type": "address"
        },
        {
          "internalType": "address",
          "name": "_token",
          "type": "address"
        },
        {
          "internalType": "uint256",
          "name": "_amount",
          "type": "uint256"
        },
        {
          "internalType": "enum Flashloan.Direction",
          "name": "_direction",
          "type": "uint8"
        }
      ],
      "name": "initiateFlashloan",
      "outputs": [],
      "payable": false,
      "stateMutability": "nonpayable",
      "type": "function"
    }
  ],
  "bytecode": "0x60806040523480156200001157600080fd5b506040516200288b3803806200288b83398181016040526200003791908101906200019d565b846000806101000a81548173ffffffffffffffffffffffffffffffffffffffff021916908373ffffffffffffffffffffffffffffffffffffffff16021790555083600160006101000a81548173ffffffffffffffffffffffffffffffffffffffff021916908373ffffffffffffffffffffffffffffffffffffffff16021790555082600260006101000a81548173ffffffffffffffffffffffffffffffffffffffff021916908373ffffffffffffffffffffffffffffffffffffffff16021790555081600360006101000a81548173ffffffffffffffffffffffffffffffffffffffff021916908373ffffffffffffffffffffffffffffffffffffffff16021790555080600460006101000a81548173ffffffffffffffffffffffffffffffffffffffff021916908373ffffffffffffffffffffffffffffffffffffffff16021790555050505050506200026d565b600081519050620001978162000253565b92915050565b600080600080600060a08688031215620001b657600080fd5b6000620001c68882890162000186565b9550506020620001d98882890162000186565b9450506040620001ec8882890162000186565b9350506060620001ff8882890162000186565b9250506080620002128882890162000186565b9150509295509295909350565b60006200022c8262000233565b9050919050565b600073ffffffffffffffffffffffffffffffffffffffff82169050919050565b6200025e816200021f565b81146200026a57600080fd5b50565b61260e806200027d6000396000f3fe6080604052600436106100295760003560e01c80638b4187131461002b578063c013147614610054575b005b34801561003757600080fd5b50610052600480360361004d9190810190611978565b61007d565b005b34801561006057600080fd5b5061007b60048036036100769190810190611915565b610e6b565b005b61008561154d565b818060200190516100999190810190611a49565b90506000600360009054906101000a900473ffffffffffffffffffffffffffffffffffffffff1673ffffffffffffffffffffffffffffffffffffffff166370a08231306040518263ffffffff1660e01b81526004016100f89190611fab565b60206040518083038186803b15801561011057600080fd5b505afa158015610124573d6000803e3d6000fd5b505050506040513d601f19601f820116820180604052506101489190810190611a72565b90506000600181111561015757fe5b8260000151600181111561016757fe5b141561068e57600360009054906101000a900473ffffffffffffffffffffffffffffffffffffffff1673ffffffffffffffffffffffffffffffffffffffff1663095ea7b36000809054906101000a900473ffffffffffffffffffffffffffffffffffffffff16836040518363ffffffff1660e01b81526004016101eb929190611fc6565b602060405180830381600087803b15801561020557600080fd5b505af1158015610219573d6000803e3d6000fd5b505050506040513d601f19601f8201168201806040525061023d9190810190611a20565b5060008060009054906101000a900473ffffffffffffffffffffffffffffffffffffffff1673ffffffffffffffffffffffffffffffffffffffff1663809a9e55600360009054906101000a900473ffffffffffffffffffffffffffffffffffffffff1673eeeeeeeeeeeeeeeeeeeeeeeeeeeeeeeeeeeeeeee856040518463ffffffff1660e01b81526004016102d493929190612026565b604080518083038186803b1580156102eb57600080fd5b505afa1580156102ff573d6000803e3d6000fd5b505050506040513d601f19601f820116820180604052506103239190810190611a9b565b5090506000809054906101000a900473ffffffffffffffffffffffffffffffffffffffff1673ffffffffffffffffffffffffffffffffffffffff16633bba21dc600360009054906101000a900473ffffffffffffffffffffffffffffffffffffffff1684846040518463ffffffff1660e01b81526004016103a693929190612086565b602060405180830381600087803b1580156103c057600080fd5b505af11580156103d4573d6000803e3d6000fd5b505050506040513d601f19601f820116820180604052506103f89190810190611a72565b506060600260405190808252806020026020018201604052801561042b5781602001602082028038833980820191505090505b509050600260009054906101000a900473ffffffffffffffffffffffffffffffffffffffff168160008151811061045e57fe5b602002602001019073ffffffffffffffffffffffffffffffffffffffff16908173ffffffffffffffffffffffffffffffffffffffff1681525050600360009054906101000a900473ffffffffffffffffffffffffffffffffffffffff16816001815181106104c857fe5b602002602001019073ffffffffffffffffffffffffffffffffffffffff16908173ffffffffffffffffffffffffffffffffffffffff16815250506060600160009054906101000a900473ffffffffffffffffffffffffffffffffffffffff1673ffffffffffffffffffffffffffffffffffffffff1663d06ca61f47846040518363ffffffff1660e01b815260040161056192919061218a565b60006040518083038186803b15801561057957600080fd5b505afa15801561058d573d6000803e3d6000fd5b505050506040513d6000823e3d601f19601f820116820180604052506105b691908101906119df565b9050600160009054906101000a900473ffffffffffffffffffffffffffffffffffffffff1673ffffffffffffffffffffffffffffffffffffffff16637ff36ab5478360018151811061060457fe5b60200260200101518530426040518663ffffffff1660e01b815260040161062e94939291906121ba565b6000604051808303818588803b15801561064757600080fd5b505af115801561065b573d6000803e3d6000fd5b50505050506040513d6000823e3d601f19601f8201168201806040525061068591908101906119df565b50505050610bac565b600360009054906101000a900473ffffffffffffffffffffffffffffffffffffffff1673ffffffffffffffffffffffffffffffffffffffff1663095ea7b3600160009054906101000a900473ffffffffffffffffffffffffffffffffffffffff16836040518363ffffffff1660e01b815260040161070d929190611fc6565b602060405180830381600087803b15801561072757600080fd5b505af115801561073b573d6000803e3d6000fd5b505050506040513d601f19601f8201168201806040525061075f9190810190611a20565b50606060026040519080825280602002602001820160405280156107925781602001602082028038833980820191505090505b509050600360009054906101000a900473ffffffffffffffffffffffffffffffffffffffff16816000815181106107c557fe5b602002602001019073ffffffffffffffffffffffffffffffffffffffff16908173ffffffffffffffffffffffffffffffffffffffff1681525050600260009054906101000a900473ffffffffffffffffffffffffffffffffffffffff168160018151811061082f57fe5b602002602001019073ffffffffffffffffffffffffffffffffffffffff16908173ffffffffffffffffffffffffffffffffffffffff16815250506060600160009054906101000a900473ffffffffffffffffffffffffffffffffffffffff1673ffffffffffffffffffffffffffffffffffffffff1663d06ca61f84846040518363ffffffff1660e01b81526004016108c892919061218a565b60006040518083038186803b1580156108e057600080fd5b505afa1580156108f4573d6000803e3d6000fd5b505050506040513d6000823e3d601f19601f8201168201806040525061091d91908101906119df565b9050600160009054906101000a900473ffffffffffffffffffffffffffffffffffffffff1673ffffffffffffffffffffffffffffffffffffffff166318cbafe5848360018151811061096b57fe5b60200260200101518530426040518663ffffffff1660e01b8152600401610996959493929190612206565b600060405180830381600087803b1580156109b057600080fd5b505af11580156109c4573d6000803e3d6000fd5b505050506040513d6000823e3d601f19601f820116820180604052506109ed91908101906119df565b5060008060009054906101000a900473ffffffffffffffffffffffffffffffffffffffff1673ffffffffffffffffffffffffffffffffffffffff1663809a9e5573eeeeeeeeeeeeeeeeeeeeeeeeeeeeeeeeeeeeeeee600360009054906101000a900473ffffffffffffffffffffffffffffffffffffffff16476040518463ffffffff1660e01b8152600401610a8493929190612026565b604080518083038186803b158015610a9b57600080fd5b505afa158015610aaf573d6000803e3d6000fd5b505050506040513d601f19601f82011682018060405250610ad39190810190611a9b565b5090506000809054906101000a900473ffffffffffffffffffffffffffffffffffffffff1673ffffffffffffffffffffffffffffffffffffffff16637a2a045647600360009054906101000a900473ffffffffffffffffffffffffffffffffffffffff16846040518463ffffffff1660e01b8152600401610b5592919061205d565b6020604051808303818588803b158015610b6e57600080fd5b505af1158015610b82573d6000803e3d6000fd5b50505050506040513d601f19601f82011682018060405250610ba79190810190611a72565b505050505b8160200151600360009054906101000a900473ffffffffffffffffffffffffffffffffffffffff1673ffffffffffffffffffffffffffffffffffffffff166370a08231306040518263ffffffff1660e01b8152600401610c0c9190611fab565b60206040518083038186803b158015610c2457600080fd5b505afa158015610c38573d6000803e3d6000fd5b505050506040513d601f19601f82011682018060405250610c5c9190810190611a72565b1015610c9d576040517f08c379a0000000000000000000000000000000000000000000000000000000008152600401610c9490612114565b60405180910390fd5b60008260200151600360009054906101000a900473ffffffffffffffffffffffffffffffffffffffff1673ffffffffffffffffffffffffffffffffffffffff166370a08231306040518263ffffffff1660e01b8152600401610cff9190611fab565b60206040518083038186803b158015610d1757600080fd5b505afa158015610d2b573d6000803e3d6000fd5b505050506040513d601f19601f82011682018060405250610d4f9190810190611a72565b039050600360009054906101000a900473ffffffffffffffffffffffffffffffffffffffff1673ffffffffffffffffffffffffffffffffffffffff1663a9059cbb600460009054906101000a900473ffffffffffffffffffffffffffffffffffffffff16836040518363ffffffff1660e01b8152600401610dd1929190611fc6565b602060405180830381600087803b158015610deb57600080fd5b505af1158015610dff573d6000803e3d6000fd5b505050506040513d601f19601f82011682018060405250610e239190810190611a20565b507fa89b78c8d1240154beaf4b865d2d7cb794ac0f358c618aef3de102cf4a4ee42d83600001518242604051610e5b939291906120bd565b60405180910390a1505050505050565b60008490506000610e7c86866110d4565b90506000610e8985611286565b90508573ffffffffffffffffffffffffffffffffffffffff1663095ea7b388836040518363ffffffff1660e01b8152600401610ec6929190611fc6565b602060405180830381600087803b158015610ee057600080fd5b505af1158015610ef4573d6000803e3d6000fd5b505050506040513d601f19601f82011682018060405250610f189190810190611a20565b5060606003604051908082528060200260200182016040528015610f5657816020015b610f43611572565b815260200190600190039081610f3b5790505b509050610f6383876112a3565b81600081518110610f7057fe5b6020026020010181905250610fc26040518060400160405280876001811115610f9557fe5b815260200184815250604051602001610fae9190612154565b60405160208183030381529060405261135c565b81600181518110610fcf57fe5b6020026020010181905250610fe48383611406565b81600281518110610ff157fe5b60200260200101819052506060600160405190808252806020026020018201604052801561103957816020015b6110266115de565b81526020019060019003908161101e5790505b5090506110446114bf565b8160008151811061105157fe5b60200260200101819052508473ffffffffffffffffffffffffffffffffffffffff1663a67a6a4582846040518363ffffffff1660e01b8152600401611097929190611fef565b600060405180830381600087803b1580156110b157600080fd5b505af11580156110c5573d6000803e3d6000fd5b50505050505050505050505050565b60008083905060008173ffffffffffffffffffffffffffffffffffffffff1663295c39a56040518163ffffffff1660e01b815260040160206040518083038186803b15801561112257600080fd5b505afa158015611136573d6000803e3d6000fd5b505050506040513d601f19601f8201168201806040525061115a9190810190611a72565b9050600080600090505b82811015611244578373ffffffffffffffffffffffffffffffffffffffff1663062bd3e9826040518263ffffffff1660e01b81526004016111a5919061216f565b60206040518083038186803b1580156111bd57600080fd5b505afa1580156111d1573d6000803e3d6000fd5b505050506040513d601f19601f820116820180604052506111f591908101906118ec565b91508573ffffffffffffffffffffffffffffffffffffffff168273ffffffffffffffffffffffffffffffffffffffff1614156112375780945050505050611280565b8080600101915050611164565b506040517f08c379a000000000000000000000000000000000000000000000000000000000815260040161127790612134565b60405180910390fd5b92915050565b600061129c6002836114f890919063ffffffff16565b9050919050565b6112ab61160e565b604051806101000160405280600160088111156112c457fe5b8152602001600081526020016040518060800160405280600015158152602001600060018111156112f157fe5b81526020016000600181111561130357fe5b8152602001858152508152602001848152602001600081526020013073ffffffffffffffffffffffffffffffffffffffff1681526020016000815260200160405180602001604052806000815250815250905092915050565b61136461160e565b60405180610100016040528060088081111561137c57fe5b8152602001600081526020016040518060800160405280600015158152602001600060018111156113a957fe5b8152602001600060018111156113bb57fe5b81526020016000815250815260200160008152602001600081526020013073ffffffffffffffffffffffffffffffffffffffff16815260200160008152602001838152509050919050565b61140e61160e565b6040518061010001604052806000600881111561142757fe5b81526020016000815260200160405180608001604052806001151581526020016000600181111561145457fe5b81526020016000600181111561146657fe5b8152602001858152508152602001848152602001600081526020013073ffffffffffffffffffffffffffffffffffffffff1681526020016000815260200160405180602001604052806000815250815250905092915050565b6114c761167a565b60405180604001604052803073ffffffffffffffffffffffffffffffffffffffff1681526020016001815250905090565b600080828401905083811015611543576040517f08c379a000000000000000000000000000000000000000000000000000000000815260040161153a906120f4565b60405180910390fd5b8091505092915050565b60405180604001604052806000600181111561156557fe5b8152602001600081525090565b6040518061010001604052806000600881111561158b57fe5b81526020016000815260200161159f6116aa565b81526020016000815260200160008152602001600073ffffffffffffffffffffffffffffffffffffffff16815260200160008152602001606081525090565b6040518060400160405280600073ffffffffffffffffffffffffffffffffffffffff168152602001600081525090565b6040518061010001604052806000600881111561162757fe5b81526020016000815260200161163b6116aa565b81526020016000815260200160008152602001600073ffffffffffffffffffffffffffffffffffffffff16815260200160008152602001606081525090565b6040518060400160405280600073ffffffffffffffffffffffffffffffffffffffff168152602001600081525090565b6040518060800160405280600015158152602001600060018111156116cb57fe5b8152602001600060018111156116dd57fe5b8152602001600081525090565b6000813590506116f981612576565b92915050565b60008151905061170e81612576565b92915050565b600082601f83011261172557600080fd5b81516117386117338261228d565b612260565b9150818183526020840193506020810190508385602084028201111561175d57600080fd5b60005b8381101561178d578161177388826118d7565b845260208401935060208301925050600181019050611760565b5050505092915050565b6000815190506117a68161258d565b92915050565b600082601f8301126117bd57600080fd5b81356117d06117cb826122b5565b612260565b915080825260208301602083018583830111156117ec57600080fd5b6117f78382846124ef565b50505092915050565b60008135905061180f816125a4565b92915050565b600081519050611824816125a4565b92915050565b60006040828403121561183c57600080fd5b6118466040612260565b9050600061185684828501611815565b600083015250602061186a848285016118d7565b60208301525092915050565b60006040828403121561188857600080fd5b6118926040612260565b905060006118a2848285016116ea565b60008301525060206118b6848285016118c2565b60208301525092915050565b6000813590506118d1816125b4565b92915050565b6000815190506118e6816125b4565b92915050565b6000602082840312156118fe57600080fd5b600061190c848285016116ff565b91505092915050565b6000806000806080858703121561192b57600080fd5b6000611939878288016116ea565b945050602061194a878288016116ea565b935050604061195b878288016118c2565b925050606061196c87828801611800565b91505092959194509250565b60008060006080848603121561198d57600080fd5b600061199b868287016116ea565b93505060206119ac86828701611876565b925050606084013567ffffffffffffffff8111156119c957600080fd5b6119d5868287016117ac565b9150509250925092565b6000602082840312156119f157600080fd5b600082015167ffffffffffffffff811115611a0b57600080fd5b611a1784828501611714565b91505092915050565b600060208284031215611a3257600080fd5b6000611a4084828501611797565b91505092915050565b600060408284031215611a5b57600080fd5b6000611a698482850161182a565b91505092915050565b600060208284031215611a8457600080fd5b6000611a92848285016118d7565b91505092915050565b60008060408385031215611aae57600080fd5b6000611abc858286016118d7565b9250506020611acd858286016118d7565b9150509250929050565b6000611ae38383611b2a565b60208301905092915050565b6000611afb8383611e27565b905092915050565b6000611b0f8383611f5e565b60408301905092915050565b611b248161244d565b82525050565b611b33816123b9565b82525050565b611b42816123b9565b82525050565b6000611b5382612311565b611b5d8185612364565b9350611b68836122e1565b8060005b83811015611b99578151611b808882611ad7565b9750611b8b8361233d565b925050600181019050611b6c565b5085935050505092915050565b6000611bb18261231c565b611bbb8185612375565b935083602082028501611bcd856122f1565b8060005b85811015611c095784840389528151611bea8582611aef565b9450611bf58361234a565b925060208a01995050600181019050611bd1565b50829750879550505050505092915050565b6000611c2682612327565b611c308185612386565b9350611c3b83612301565b8060005b83811015611c6c578151611c538882611b03565b9750611c5e83612357565b925050600181019050611c3f565b5085935050505092915050565b611c82816123cb565b82525050565b6000611c9382612332565b611c9d8185612397565b9350611cad8185602086016124fe565b611cb681612531565b840191505092915050565b611cca8161245f565b82525050565b611cd981612483565b82525050565b611ce881612495565b82525050565b611cf7816124a7565b82525050565b611d06816124b9565b82525050565b611d15816124b9565b82525050565b6000611d28601b836123a8565b91507f536166654d6174683a206164646974696f6e206f766572666c6f7700000000006000830152602082019050919050565b6000611d686024836123a8565b91507f4e6f7420656e6f7567682066756e647320746f2072657061792064796478206c60008301527f6f616e21000000000000000000000000000000000000000000000000000000006020830152604082019050919050565b6000611dce6024836123a8565b91507f4e6f206d61726b6574496420666f756e6420666f722070726f7669646564207460008301527f6f6b656e000000000000000000000000000000000000000000000000000000006020830152604082019050919050565b600061016083016000830151611e406000860182611cd0565b506020830151611e536020860182611f8d565b506040830151611e666040860182611f09565b506060830151611e7960c0860182611f8d565b506080830151611e8c60e0860182611f8d565b5060a0830151611ea0610100860182611b2a565b5060c0830151611eb4610120860182611f8d565b5060e0830151848203610140860152611ecd8282611c88565b9150508091505092915050565b604082016000820151611ef06000850182611cfd565b506020820151611f036020850182611f8d565b50505050565b608082016000820151611f1f6000850182611c79565b506020820151611f326020850182611cdf565b506040820151611f456040850182611cee565b506060820151611f586060850182611f8d565b50505050565b604082016000820151611f746000850182611b2a565b506020820151611f876020850182611f8d565b50505050565b611f9681612443565b82525050565b611fa581612443565b82525050565b6000602082019050611fc06000830184611b1b565b92915050565b6000604082019050611fdb6000830185611b39565b611fe86020830184611f9c565b9392505050565b600060408201905081810360008301526120098185611c1b565b9050818103602083015261201d8184611ba6565b90509392505050565b600060608201905061203b6000830186611cc1565b6120486020830185611cc1565b6120556040830184611f9c565b949350505050565b60006040820190506120726000830185611cc1565b61207f6020830184611f9c565b9392505050565b600060608201905061209b6000830186611cc1565b6120a86020830185611f9c565b6120b56040830184611f9c565b949350505050565b60006060820190506120d26000830186611d0c565b6120df6020830185611f9c565b6120ec6040830184611f9c565b949350505050565b6000602082019050818103600083015261210d81611d1b565b9050919050565b6000602082019050818103600083015261212d81611d5b565b9050919050565b6000602082019050818103600083015261214d81611dc1565b9050919050565b60006040820190506121696000830184611eda565b92915050565b60006020820190506121846000830184611f9c565b92915050565b600060408201905061219f6000830185611f9c565b81810360208301526121b18184611b48565b90509392505050565b60006080820190506121cf6000830187611f9c565b81810360208301526121e18186611b48565b90506121f06040830185611b1b565b6121fd6060830184611f9c565b95945050505050565b600060a08201905061221b6000830188611f9c565b6122286020830187611f9c565b818103604083015261223a8186611b48565b90506122496060830185611b1b565b6122566080830184611f9c565b9695505050505050565b6000604051905081810181811067ffffffffffffffff8211171561228357600080fd5b8060405250919050565b600067ffffffffffffffff8211156122a457600080fd5b602082029050602081019050919050565b600067ffffffffffffffff8211156122cc57600080fd5b601f19601f8301169050602081019050919050565b6000819050602082019050919050565b6000819050602082019050919050565b6000819050602082019050919050565b600081519050919050565b600081519050919050565b600081519050919050565b600081519050919050565b6000602082019050919050565b6000602082019050919050565b6000602082019050919050565b600082825260208201905092915050565b600082825260208201905092915050565b600082825260208201905092915050565b600082825260208201905092915050565b600082825260208201905092915050565b60006123c482612423565b9050919050565b60008115159050919050565b60008190506123e582612542565b919050565b60008190506123f88261254f565b919050565b600081905061240b8261255c565b919050565b600081905061241e82612569565b919050565b600073ffffffffffffffffffffffffffffffffffffffff82169050919050565b6000819050919050565b6000612458826124cb565b9050919050565b600061246a82612471565b9050919050565b600061247c82612423565b9050919050565b600061248e826123d7565b9050919050565b60006124a0826123ea565b9050919050565b60006124b2826123fd565b9050919050565b60006124c482612410565b9050919050565b60006124d6826124dd565b9050919050565b60006124e882612423565b9050919050565b82818337600083830152505050565b60005b8381101561251c578082015181840152602081019050612501565b8381111561252b576000848401525b50505050565b6000601f19601f8301169050919050565b6009811061254c57fe5b50565b6002811061255957fe5b50565b6002811061256657fe5b50565b6002811061257357fe5b50565b61257f816123b9565b811461258a57600080fd5b50565b612596816123cb565b81146125a157600080fd5b50565b600281106125b157600080fd5b50565b6125bd81612443565b81146125c857600080fd5b5056fea365627a7a7231582040ba2a8ab1b959bcf548f4f9717ecb1eea5c56104c328b79dd53c3cea60fbab96c6578706572696d656e74616cf564736f6c63430005100040",
  "source": "pragma solidity ^0.5.0;\r\npragma experimental ABIEncoderV2;\r\n\r\nimport \"@studydefi/money-legos/dydx/contracts/DydxFlashloanBase.sol\";\r\nimport \"@studydefi/money-legos/dydx/contracts/ICallee.sol\";\r\nimport { KyberNetworkProxy as IKyberNetworkProxy } from '@studydefi/money-legos/kyber/contracts/KyberNetworkProxy.sol';\r\n\r\nimport \"@openzeppelin/contracts/token/ERC20/IERC20.sol\";\r\nimport './IUniswapV2Router02.sol';\r\nimport './IWeth.sol';\r\n\r\ncontract Flashloan is ICallee, DydxFlashloanBase {\r\n    enum Direction { KyberToUniswap, UniswapToKyber } \r\n    struct ArbInfo {\r\n        Direction direction;\r\n        uint repayAmount;\r\n    }\r\n\r\n    event NewArbitrage (\r\n      Direction direction,\r\n      uint profit,\r\n      uint date\r\n    );\r\n\r\n    IKyberNetworkProxy kyber;\r\n    IUniswapV2Router02 uniswap;\r\n    IWeth weth;\r\n    IERC20 dai;\r\n    address beneficiary;\r\n    address constant KYBER_ETH_ADDRESS = 0xEeeeeEeeeEeEeeEeEeEeeEEEeeeeEeeeeeeeEEeE;\r\n\r\n    constructor(\r\n        address kyberAddress,\r\n        address uniswapAddress,\r\n        address wethAddress,\r\n        address daiAddress,\r\n        address beneficiaryAddress\r\n    ) public {\r\n      kyber = IKyberNetworkProxy(kyberAddress);\r\n      uniswap = IUniswapV2Router02(uniswapAddress);\r\n      weth = IWeth(wethAddress);\r\n      dai = IERC20(daiAddress);\r\n      beneficiary = beneficiaryAddress;\r\n    }\r\n\r\n    // This is the function that will be called postLoan\r\n    // i.e. Encode the logic to handle your flashloaned funds here\r\n    function callFunction(\r\n        address sender,\r\n        Account.Info memory account,\r\n        bytes memory data\r\n    ) public {\r\n        ArbInfo memory arbInfo = abi.decode(data, (ArbInfo));\r\n        uint256 balanceDai = dai.balanceOf(address(this));\r\n\r\n        if(arbInfo.direction == Direction.KyberToUniswap) {\r\n          //Buy ETH on Kyber\r\n          dai.approve(address(kyber), balanceDai); \r\n          (uint expectedRate, ) = kyber.getExpectedRate(\r\n            dai, \r\n            IERC20(KYBER_ETH_ADDRESS), \r\n            balanceDai\r\n          );\r\n          kyber.swapTokenToEther(dai, balanceDai, expectedRate);\r\n\r\n          //Sell ETH on Uniswap\r\n          address[] memory path = new address[](2);\r\n          path[0] = address(weth);\r\n          path[1] = address(dai);\r\n          uint[] memory minOuts = uniswap.getAmountsOut(address(this).balance, path); \r\n          uniswap.swapExactETHForTokens.value(address(this).balance)(\r\n            minOuts[1], \r\n            path, \r\n            address(this), \r\n            now\r\n          );\r\n        } else {\r\n          //Buy ETH on Uniswap\r\n          dai.approve(address(uniswap), balanceDai); \r\n          address[] memory path = new address[](2);\r\n          path[0] = address(dai);\r\n          path[1] = address(weth);\r\n          uint[] memory minOuts = uniswap.getAmountsOut(balanceDai, path); \r\n          uniswap.swapExactTokensForETH(\r\n            balanceDai, \r\n            minOuts[1], \r\n            path, \r\n            address(this), \r\n            now\r\n          );\r\n\r\n          //Sell ETH on Kyber\r\n          (uint expectedRate, ) = kyber.getExpectedRate(\r\n            IERC20(KYBER_ETH_ADDRESS), \r\n            dai, \r\n            address(this).balance\r\n          );\r\n          kyber.swapEtherToToken.value(address(this).balance)(\r\n            dai, \r\n            expectedRate\r\n          );\r\n        }\r\n\r\n        require(\r\n            dai.balanceOf(address(this)) >= arbInfo.repayAmount,\r\n            \"Not enough funds to repay dydx loan!\"\r\n        );\r\n\r\n        uint profit = dai.balanceOf(address(this)) - arbInfo.repayAmount; \r\n        dai.transfer(beneficiary, profit);\r\n        emit NewArbitrage(arbInfo.direction, profit, now);\r\n    }\r\n\r\n    function initiateFlashloan(\r\n      address _solo, \r\n      address _token, \r\n      uint256 _amount, \r\n      Direction _direction)\r\n        external\r\n    {\r\n        ISoloMargin solo = ISoloMargin(_solo);\r\n\r\n        // Get marketId from token address\r\n        uint256 marketId = _getMarketIdFromTokenAddress(_solo, _token);\r\n\r\n        // Calculate repay amount (_amount + (2 wei))\r\n        // Approve transfer from\r\n        uint256 repayAmount = _getRepaymentAmountInternal(_amount);\r\n        IERC20(_token).approve(_solo, repayAmount);\r\n\r\n        // 1. Withdraw $\r\n        // 2. Call callFunction(...)\r\n        // 3. Deposit back $\r\n        Actions.ActionArgs[] memory operations = new Actions.ActionArgs[](3);\r\n\r\n        operations[0] = _getWithdrawAction(marketId, _amount);\r\n        operations[1] = _getCallAction(\r\n            // Encode MyCustomData for callFunction\r\n            abi.encode(ArbInfo({direction: _direction, repayAmount: repayAmount}))\r\n        );\r\n        operations[2] = _getDepositAction(marketId, repayAmount);\r\n\r\n        Account.Info[] memory accountInfos = new Account.Info[](1);\r\n        accountInfos[0] = _getAccountInfo();\r\n\r\n        solo.operate(accountInfos, operations);\r\n    }\r\n\r\n    function() external payable {}\r\n}",
  "sourcePath": "/mnt/c/pr0/KyberUniTradingBot/ETHDAI/contracts/Flashloan.sol",
  "compiler": {
    "name": "solc",
    "version": "0.5.16+commit.9c3226ce.Emscripten.clang"
  },
  "schemaVersion": "3.4.1",
  "updatedAt": "2021-07-21T21:41:51.247Z",
  "networkType": "ethereum",
  "devdoc": {
    "methods": {}
  },
  "userdoc": {
    "methods": {}
  }
}